{
  "_format": "hh-sol-artifact-1",
  "contractName": "NFTMarketplace",
  "sourceName": "contracts/NFTMarketplace.sol",
  "abi": [
    {
      "inputs": [],
      "stateMutability": "nonpayable",
      "type": "constructor"
    },
    {
      "inputs": [
        {
          "internalType": "address",
          "name": "owner",
          "type": "address"
        }
      ],
      "name": "OwnableInvalidOwner",
      "type": "error"
    },
    {
      "inputs": [
        {
          "internalType": "address",
          "name": "account",
          "type": "address"
        }
      ],
      "name": "OwnableUnauthorizedAccount",
      "type": "error"
    },
    {
      "anonymous": false,
      "inputs": [
        {
          "indexed": true,
          "internalType": "uint256",
          "name": "listingId",
          "type": "uint256"
        },
        {
          "indexed": true,
          "internalType": "address",
          "name": "seller",
          "type": "address"
        },
        {
          "indexed": true,
          "internalType": "address",
          "name": "nftContract",
          "type": "address"
        },
        {
          "indexed": false,
          "internalType": "uint256",
          "name": "tokenId",
          "type": "uint256"
        },
        {
          "indexed": false,
          "internalType": "uint256",
          "name": "price",
          "type": "uint256"
        },
        {
          "indexed": false,
          "internalType": "string",
          "name": "imageURL",
          "type": "string"
        }
      ],
      "name": "NFTListed",
      "type": "event"
    },
    {
      "anonymous": false,
      "inputs": [
        {
          "indexed": true,
          "internalType": "uint256",
          "name": "listingId",
          "type": "uint256"
        },
        {
          "indexed": true,
          "internalType": "address",
          "name": "buyer",
          "type": "address"
        }
      ],
      "name": "NFTPurchased",
      "type": "event"
    },
    {
      "anonymous": false,
      "inputs": [
        {
          "indexed": true,
          "internalType": "address",
          "name": "previousOwner",
          "type": "address"
        },
        {
          "indexed": true,
          "internalType": "address",
          "name": "newOwner",
          "type": "address"
        }
      ],
      "name": "OwnershipTransferred",
      "type": "event"
    },
    {
      "inputs": [
        {
          "internalType": "uint256",
          "name": "_listingId",
          "type": "uint256"
        }
      ],
      "name": "buyNFT",
      "outputs": [],
      "stateMutability": "payable",
      "type": "function"
    },
    {
      "inputs": [
        {
          "internalType": "uint256",
          "name": "_price",
          "type": "uint256"
        },
        {
          "internalType": "string",
          "name": "_imageURL",
          "type": "string"
        }
      ],
      "name": "createAndListNFT",
      "outputs": [],
      "stateMutability": "nonpayable",
      "type": "function"
    },
    {
      "inputs": [
        {
          "internalType": "uint256",
          "name": "_listingId",
          "type": "uint256"
        },
        {
          "internalType": "address",
          "name": "_address",
          "type": "address"
        }
      ],
      "name": "isBuyer",
      "outputs": [
        {
          "internalType": "bool",
          "name": "",
          "type": "bool"
        }
      ],
      "stateMutability": "view",
      "type": "function"
    },
    {
      "inputs": [],
      "name": "listingCount",
      "outputs": [
        {
          "internalType": "uint256",
          "name": "",
          "type": "uint256"
        }
      ],
      "stateMutability": "view",
      "type": "function"
    },
    {
      "inputs": [
        {
          "internalType": "uint256",
          "name": "",
          "type": "uint256"
        }
      ],
      "name": "listings",
      "outputs": [
        {
          "internalType": "address",
          "name": "seller",
          "type": "address"
        },
        {
          "internalType": "address",
          "name": "buyer",
          "type": "address"
        },
        {
          "internalType": "address",
          "name": "nftContract",
          "type": "address"
        },
        {
          "internalType": "uint256",
          "name": "tokenId",
          "type": "uint256"
        },
        {
          "internalType": "uint256",
          "name": "price",
          "type": "uint256"
        },
        {
          "internalType": "string",
          "name": "imageURL",
          "type": "string"
        },
        {
          "internalType": "bool",
          "name": "sold",
          "type": "bool"
        }
      ],
      "stateMutability": "view",
      "type": "function"
    },
    {
      "inputs": [],
      "name": "owner",
      "outputs": [
        {
          "internalType": "address",
          "name": "",
          "type": "address"
        }
      ],
      "stateMutability": "view",
      "type": "function"
    },
    {
      "inputs": [
        {
          "internalType": "uint256",
          "name": "_listingId",
          "type": "uint256"
        },
        {
          "internalType": "uint256",
          "name": "_newPrice",
          "type": "uint256"
        }
      ],
      "name": "relistNFT",
      "outputs": [],
      "stateMutability": "nonpayable",
      "type": "function"
    },
    {
      "inputs": [],
      "name": "renounceOwnership",
      "outputs": [],
      "stateMutability": "nonpayable",
      "type": "function"
    },
    {
      "inputs": [
        {
          "internalType": "address",
          "name": "newOwner",
          "type": "address"
        }
      ],
      "name": "transferOwnership",
      "outputs": [],
      "stateMutability": "nonpayable",
      "type": "function"
    }
  ],
  "bytecode": "0x608060405234801561001057600080fd5b5033600073ffffffffffffffffffffffffffffffffffffffff168173ffffffffffffffffffffffffffffffffffffffff16036100845760006040517f1e4fbdf700000000000000000000000000000000000000000000000000000000815260040161007b919061019e565b60405180910390fd5b6100938161009960201b60201c565b506101b9565b60008060009054906101000a900473ffffffffffffffffffffffffffffffffffffffff169050816000806101000a81548173ffffffffffffffffffffffffffffffffffffffff021916908373ffffffffffffffffffffffffffffffffffffffff1602179055508173ffffffffffffffffffffffffffffffffffffffff168173ffffffffffffffffffffffffffffffffffffffff167f8be0079c531659141344cd1fd0a4f28419497f9722a3daafe3b4186f6b6457e060405160405180910390a35050565b600073ffffffffffffffffffffffffffffffffffffffff82169050919050565b60006101888261015d565b9050919050565b6101988161017d565b82525050565b60006020820190506101b3600083018461018f565b92915050565b6116f0806101c86000396000f3fe6080604052600436106100865760003560e01c8063a9b07c2611610059578063a9b07c2614610112578063cada70b01461013d578063de74e57b1461017a578063e43ec1bc146101bd578063f2fde38b146101e657610086565b806351ed82881461008b578063715018a6146100a75780638da5cb5b146100be578063a2e4e494146100e9575b600080fd5b6100a560048036038101906100a09190610c5c565b61020f565b005b3480156100b357600080fd5b506100bc6103d1565b005b3480156100ca57600080fd5b506100d36103e5565b6040516100e09190610cca565b60405180910390f35b3480156100f557600080fd5b50610110600480360381019061010b9190610ce5565b61040e565b005b34801561011e57600080fd5b5061012761064f565b6040516101349190610d34565b60405180910390f35b34801561014957600080fd5b50610164600480360381019061015f9190610d7b565b610655565b6040516101719190610dd6565b60405180910390f35b34801561018657600080fd5b506101a1600480360381019061019c9190610c5c565b6106c4565b6040516101b49796959493929190610e81565b60405180910390f35b3480156101c957600080fd5b506101e460048036038101906101df919061102c565b6107fb565b005b3480156101f257600080fd5b5061020d60048036038101906102089190611088565b610a39565b005b60006001600083815260200190815260200160002090508060060160009054906101000a900460ff1615610278576040517f08c379a000000000000000000000000000000000000000000000000000000000815260040161026f90611101565b60405180910390fd5b806004015434146102be576040517f08c379a00000000000000000000000000000000000000000000000000000000081526004016102b59061116d565b60405180910390fd5b60018160060160006101000a81548160ff021916908315150217905550338160010160006101000a81548173ffffffffffffffffffffffffffffffffffffffff021916908373ffffffffffffffffffffffffffffffffffffffff1602179055508060000160009054906101000a900473ffffffffffffffffffffffffffffffffffffffff1673ffffffffffffffffffffffffffffffffffffffff166108fc349081150290604051600060405180830381858888f19350505050158015610388573d6000803e3d6000fd5b503373ffffffffffffffffffffffffffffffffffffffff16827fbebca6653c629a651174dc2ea9b9f7ef506290dee89fe1a6087eb1e12c06d43060405160405180910390a35050565b6103d9610abf565b6103e36000610b46565b565b60008060009054906101000a900473ffffffffffffffffffffffffffffffffffffffff16905090565b60006001600084815260200190815260200160002090503373ffffffffffffffffffffffffffffffffffffffff168160010160009054906101000a900473ffffffffffffffffffffffffffffffffffffffff1673ffffffffffffffffffffffffffffffffffffffff16146104b7576040517f08c379a00000000000000000000000000000000000000000000000000000000081526004016104ae906111d9565b60405180910390fd5b8060060160009054906101000a900460ff16610508576040517f08c379a00000000000000000000000000000000000000000000000000000000081526004016104ff90611245565b60405180910390fd5b338160000160006101000a81548173ffffffffffffffffffffffffffffffffffffffff021916908373ffffffffffffffffffffffffffffffffffffffff16021790555081816004018190555060008160010160006101000a81548173ffffffffffffffffffffffffffffffffffffffff021916908373ffffffffffffffffffffffffffffffffffffffff16021790555060008160060160006101000a81548160ff0219169083151502179055508060020160009054906101000a900473ffffffffffffffffffffffffffffffffffffffff1673ffffffffffffffffffffffffffffffffffffffff163373ffffffffffffffffffffffffffffffffffffffff16847ff742e32f2f44aa3b61b7344d1f2a310401483d0f5dabc1cac0f4e150567dd87f846003015486866005016040516106429392919061135e565b60405180910390a4505050565b60025481565b60008173ffffffffffffffffffffffffffffffffffffffff166001600085815260200190815260200160002060010160009054906101000a900473ffffffffffffffffffffffffffffffffffffffff1673ffffffffffffffffffffffffffffffffffffffff1614905092915050565b60016020528060005260406000206000915090508060000160009054906101000a900473ffffffffffffffffffffffffffffffffffffffff16908060010160009054906101000a900473ffffffffffffffffffffffffffffffffffffffff16908060020160009054906101000a900473ffffffffffffffffffffffffffffffffffffffff169080600301549080600401549080600501805461076590611294565b80601f016020809104026020016040519081016040528092919081815260200182805461079190611294565b80156107de5780601f106107b3576101008083540402835291602001916107de565b820191906000526020600020905b8154815290600101906020018083116107c157829003601f168201915b5050505050908060060160009054906101000a900460ff16905087565b6040518060e001604052803373ffffffffffffffffffffffffffffffffffffffff168152602001600073ffffffffffffffffffffffffffffffffffffffff168152602001600073ffffffffffffffffffffffffffffffffffffffff16815260200160025481526020018381526020018281526020016000151581525060016000600254815260200190815260200160002060008201518160000160006101000a81548173ffffffffffffffffffffffffffffffffffffffff021916908373ffffffffffffffffffffffffffffffffffffffff16021790555060208201518160010160006101000a81548173ffffffffffffffffffffffffffffffffffffffff021916908373ffffffffffffffffffffffffffffffffffffffff16021790555060408201518160020160006101000a81548173ffffffffffffffffffffffffffffffffffffffff021916908373ffffffffffffffffffffffffffffffffffffffff160217905550606082015181600301556080820151816004015560a082015181600501908161098a9190611533565b5060c08201518160060160006101000a81548160ff021916908315150217905550905050600073ffffffffffffffffffffffffffffffffffffffff163373ffffffffffffffffffffffffffffffffffffffff166002547ff742e32f2f44aa3b61b7344d1f2a310401483d0f5dabc1cac0f4e150567dd87f6002548686604051610a1593929190611605565b60405180910390a460026000815480929190610a3090611672565b91905055505050565b610a41610abf565b600073ffffffffffffffffffffffffffffffffffffffff168173ffffffffffffffffffffffffffffffffffffffff1603610ab35760006040517f1e4fbdf7000000000000000000000000000000000000000000000000000000008152600401610aaa9190610cca565b60405180910390fd5b610abc81610b46565b50565b610ac7610c0a565b73ffffffffffffffffffffffffffffffffffffffff16610ae56103e5565b73ffffffffffffffffffffffffffffffffffffffff1614610b4457610b08610c0a565b6040517f118cdaa7000000000000000000000000000000000000000000000000000000008152600401610b3b9190610cca565b60405180910390fd5b565b60008060009054906101000a900473ffffffffffffffffffffffffffffffffffffffff169050816000806101000a81548173ffffffffffffffffffffffffffffffffffffffff021916908373ffffffffffffffffffffffffffffffffffffffff1602179055508173ffffffffffffffffffffffffffffffffffffffff168173ffffffffffffffffffffffffffffffffffffffff167f8be0079c531659141344cd1fd0a4f28419497f9722a3daafe3b4186f6b6457e060405160405180910390a35050565b600033905090565b6000604051905090565b600080fd5b600080fd5b6000819050919050565b610c3981610c26565b8114610c4457600080fd5b50565b600081359050610c5681610c30565b92915050565b600060208284031215610c7257610c71610c1c565b5b6000610c8084828501610c47565b91505092915050565b600073ffffffffffffffffffffffffffffffffffffffff82169050919050565b6000610cb482610c89565b9050919050565b610cc481610ca9565b82525050565b6000602082019050610cdf6000830184610cbb565b92915050565b60008060408385031215610cfc57610cfb610c1c565b5b6000610d0a85828601610c47565b9250506020610d1b85828601610c47565b9150509250929050565b610d2e81610c26565b82525050565b6000602082019050610d496000830184610d25565b92915050565b610d5881610ca9565b8114610d6357600080fd5b50565b600081359050610d7581610d4f565b92915050565b60008060408385031215610d9257610d91610c1c565b5b6000610da085828601610c47565b9250506020610db185828601610d66565b9150509250929050565b60008115159050919050565b610dd081610dbb565b82525050565b6000602082019050610deb6000830184610dc7565b92915050565b600081519050919050565b600082825260208201905092915050565b60005b83811015610e2b578082015181840152602081019050610e10565b60008484015250505050565b6000601f19601f8301169050919050565b6000610e5382610df1565b610e5d8185610dfc565b9350610e6d818560208601610e0d565b610e7681610e37565b840191505092915050565b600060e082019050610e96600083018a610cbb565b610ea36020830189610cbb565b610eb06040830188610cbb565b610ebd6060830187610d25565b610eca6080830186610d25565b81810360a0830152610edc8185610e48565b9050610eeb60c0830184610dc7565b98975050505050505050565b600080fd5b600080fd5b7f4e487b7100000000000000000000000000000000000000000000000000000000600052604160045260246000fd5b610f3982610e37565b810181811067ffffffffffffffff82111715610f5857610f57610f01565b5b80604052505050565b6000610f6b610c12565b9050610f778282610f30565b919050565b600067ffffffffffffffff821115610f9757610f96610f01565b5b610fa082610e37565b9050602081019050919050565b82818337600083830152505050565b6000610fcf610fca84610f7c565b610f61565b905082815260208101848484011115610feb57610fea610efc565b5b610ff6848285610fad565b509392505050565b600082601f83011261101357611012610ef7565b5b8135611023848260208601610fbc565b91505092915050565b6000806040838503121561104357611042610c1c565b5b600061105185828601610c47565b925050602083013567ffffffffffffffff81111561107257611071610c21565b5b61107e85828601610ffe565b9150509250929050565b60006020828403121561109e5761109d610c1c565b5b60006110ac84828501610d66565b91505092915050565b7f4e465420616c726561647920736f6c6400000000000000000000000000000000600082015250565b60006110eb601083610dfc565b91506110f6826110b5565b602082019050919050565b6000602082019050818103600083015261111a816110de565b9050919050565b7f496e636f72726563742070726963652073656e74000000000000000000000000600082015250565b6000611157601483610dfc565b915061116282611121565b602082019050919050565b600060208201905081810360008301526111868161114a565b9050919050565b7f4f6e6c79207468652062757965722063616e2072656c69737400000000000000600082015250565b60006111c3601983610dfc565b91506111ce8261118d565b602082019050919050565b600060208201905081810360008301526111f2816111b6565b9050919050565b7f4e4654206d75737420626520736f6c6420746f2072656c697374000000000000600082015250565b600061122f601a83610dfc565b915061123a826111f9565b602082019050919050565b6000602082019050818103600083015261125e81611222565b9050919050565b7f4e487b7100000000000000000000000000000000000000000000000000000000600052602260045260246000fd5b600060028204905060018216806112ac57607f821691505b6020821081036112bf576112be611265565b5b50919050565b60008190508160005260206000209050919050565b600081546112e781611294565b6112f18186610dfc565b9450600182166000811461130c576001811461132257611355565b60ff198316865281151560200286019350611355565b61132b856112c5565b60005b8381101561134d5781548189015260018201915060208101905061132e565b808801955050505b50505092915050565b60006060820190506113736000830186610d25565b6113806020830185610d25565b818103604083015261139281846112da565b9050949350505050565b60006020601f8301049050919050565b600082821b905092915050565b6000600883026113e97fffffffffffffffffffffffffffffffffffffffffffffffffffffffffffffffff826113ac565b6113f386836113ac565b95508019841693508086168417925050509392505050565b6000819050919050565b600061143061142b61142684610c26565b61140b565b610c26565b9050919050565b6000819050919050565b61144a83611415565b61145e61145682611437565b8484546113b9565b825550505050565b600090565b611473611466565b61147e818484611441565b505050565b5b818110156114a25761149760008261146b565b600181019050611484565b5050565b601f8211156114e7576114b8816112c5565b6114c18461139c565b810160208510156114d0578190505b6114e46114dc8561139c565b830182611483565b50505b505050565b600082821c905092915050565b600061150a600019846008026114ec565b1980831691505092915050565b600061152383836114f9565b9150826002028217905092915050565b61153c82610df1565b67ffffffffffffffff81111561155557611554610f01565b5b61155f8254611294565b61156a8282856114a6565b600060209050601f83116001811461159d576000841561158b578287015190505b6115958582611517565b8655506115fd565b601f1984166115ab866112c5565b60005b828110156115d3578489015182556001820191506020850194506020810190506115ae565b868310156115f057848901516115ec601f8916826114f9565b8355505b6001600288020188555050505b505050505050565b600060608201905061161a6000830186610d25565b6116276020830185610d25565b81810360408301526116398184610e48565b9050949350505050565b7f4e487b7100000000000000000000000000000000000000000000000000000000600052601160045260246000fd5b600061167d82610c26565b91507fffffffffffffffffffffffffffffffffffffffffffffffffffffffffffffffff82036116af576116ae611643565b5b60018201905091905056fea264697066735822122010439dcfa4896f9000ca08def72e0e19df554844bd10956adbe0bb01bfacf28664736f6c634300081c0033",
  "linkReferences": {},
  "deployedLinkReferences": {}
}