{
  "_format": "hh-sol-artifact-1",
  "contractName": "NikeOfficialSneakerMarketplace",
  "sourceName": "contracts/NikeOfficialSneakerMarketplace.sol",
  "abi": [
    {
      "inputs": [
        {
          "internalType": "address",
          "name": "_nikeTreasury",
          "type": "address"
        }
      ],
      "stateMutability": "nonpayable",
      "type": "constructor"
    },
    {
      "inputs": [
        {
          "internalType": "address",
          "name": "owner",
          "type": "address"
        }
      ],
      "name": "OwnableInvalidOwner",
      "type": "error"
    },
    {
      "inputs": [
        {
          "internalType": "address",
          "name": "account",
          "type": "address"
        }
      ],
      "name": "OwnableUnauthorizedAccount",
      "type": "error"
    },
    {
      "anonymous": false,
      "inputs": [
        {
          "indexed": true,
          "internalType": "uint256",
          "name": "modelId",
          "type": "uint256"
        },
        {
          "indexed": false,
          "internalType": "string",
          "name": "sneakerModel",
          "type": "string"
        },
        {
          "indexed": false,
          "internalType": "uint256",
          "name": "totalSupply",
          "type": "uint256"
        },
        {
          "indexed": false,
          "internalType": "uint256",
          "name": "timestamp",
          "type": "uint256"
        }
      ],
      "name": "ModelCreated",
      "type": "event"
    },
    {
      "anonymous": false,
      "inputs": [
        {
          "indexed": true,
          "internalType": "address",
          "name": "previousOwner",
          "type": "address"
        },
        {
          "indexed": true,
          "internalType": "address",
          "name": "newOwner",
          "type": "address"
        }
      ],
      "name": "OwnershipTransferred",
      "type": "event"
    },
    {
      "anonymous": false,
      "inputs": [
        {
          "indexed": true,
          "internalType": "uint256",
          "name": "tokenId",
          "type": "uint256"
        },
        {
          "indexed": false,
          "internalType": "uint256",
          "name": "timestamp",
          "type": "uint256"
        }
      ],
      "name": "SneakerDeactivated",
      "type": "event"
    },
    {
      "anonymous": false,
      "inputs": [
        {
          "indexed": true,
          "internalType": "uint256",
          "name": "tokenId",
          "type": "uint256"
        },
        {
          "indexed": true,
          "internalType": "uint256",
          "name": "modelId",
          "type": "uint256"
        },
        {
          "indexed": true,
          "internalType": "address",
          "name": "seller",
          "type": "address"
        },
        {
          "indexed": false,
          "internalType": "uint256",
          "name": "price",
          "type": "uint256"
        },
        {
          "indexed": false,
          "internalType": "string",
          "name": "imageURL",
          "type": "string"
        },
        {
          "indexed": false,
          "internalType": "uint256",
          "name": "timestamp",
          "type": "uint256"
        }
      ],
      "name": "SneakerListed",
      "type": "event"
    },
    {
      "anonymous": false,
      "inputs": [
        {
          "indexed": true,
          "internalType": "uint256",
          "name": "tokenId",
          "type": "uint256"
        },
        {
          "indexed": true,
          "internalType": "address",
          "name": "buyer",
          "type": "address"
        },
        {
          "indexed": true,
          "internalType": "address",
          "name": "seller",
          "type": "address"
        },
        {
          "indexed": false,
          "internalType": "uint256",
          "name": "price",
          "type": "uint256"
        },
        {
          "indexed": false,
          "internalType": "uint256",
          "name": "royaltyPaid",
          "type": "uint256"
        },
        {
          "indexed": false,
          "internalType": "uint256",
          "name": "timestamp",
          "type": "uint256"
        }
      ],
      "name": "SneakerPurchased",
      "type": "event"
    },
    {
      "anonymous": false,
      "inputs": [
        {
          "indexed": true,
          "internalType": "uint256",
          "name": "tokenId",
          "type": "uint256"
        },
        {
          "indexed": true,
          "internalType": "address",
          "name": "seller",
          "type": "address"
        },
        {
          "indexed": false,
          "internalType": "uint256",
          "name": "newPrice",
          "type": "uint256"
        },
        {
          "indexed": false,
          "internalType": "uint256",
          "name": "timestamp",
          "type": "uint256"
        }
      ],
      "name": "SneakerRelisted",
      "type": "event"
    },
    {
      "inputs": [],
      "name": "ROYALTY_PERCENTAGE",
      "outputs": [
        {
          "internalType": "uint256",
          "name": "",
          "type": "uint256"
        }
      ],
      "stateMutability": "view",
      "type": "function"
    },
    {
      "inputs": [
        {
          "internalType": "uint256",
          "name": "_tokenId",
          "type": "uint256"
        }
      ],
      "name": "buySneaker",
      "outputs": [],
      "stateMutability": "payable",
      "type": "function"
    },
    {
      "inputs": [
        {
          "internalType": "string",
          "name": "_sneakerModel",
          "type": "string"
        },
        {
          "internalType": "uint256",
          "name": "_price",
          "type": "uint256"
        },
        {
          "internalType": "string",
          "name": "_imageURL",
          "type": "string"
        }
      ],
      "name": "createAndListSneaker",
      "outputs": [],
      "stateMutability": "nonpayable",
      "type": "function"
    },
    {
      "inputs": [
        {
          "internalType": "string",
          "name": "_sneakerModel",
          "type": "string"
        },
        {
          "internalType": "uint256",
          "name": "_totalSupply",
          "type": "uint256"
        }
      ],
      "name": "createSneakerModel",
      "outputs": [],
      "stateMutability": "nonpayable",
      "type": "function"
    },
    {
      "inputs": [
        {
          "internalType": "uint256",
          "name": "_tokenId",
          "type": "uint256"
        }
      ],
      "name": "deactivateSneaker",
      "outputs": [],
      "stateMutability": "nonpayable",
      "type": "function"
    },
    {
      "inputs": [
        {
          "internalType": "uint256",
          "name": "_tokenId",
          "type": "uint256"
        }
      ],
      "name": "getPurchaseHistory",
      "outputs": [
        {
          "components": [
            {
              "internalType": "uint256",
              "name": "tokenId",
              "type": "uint256"
            },
            {
              "internalType": "address",
              "name": "buyer",
              "type": "address"
            },
            {
              "internalType": "address",
              "name": "seller",
              "type": "address"
            },
            {
              "internalType": "uint256",
              "name": "price",
              "type": "uint256"
            },
            {
              "internalType": "uint256",
              "name": "timestamp",
              "type": "uint256"
            }
          ],
          "internalType": "struct NikeOfficialSneakerMarketplace.Purchase[]",
          "name": "",
          "type": "tuple[]"
        }
      ],
      "stateMutability": "view",
      "type": "function"
    },
    {
      "inputs": [],
      "name": "modelCount",
      "outputs": [
        {
          "internalType": "uint256",
          "name": "",
          "type": "uint256"
        }
      ],
      "stateMutability": "view",
      "type": "function"
    },
    {
      "inputs": [
        {
          "internalType": "string",
          "name": "",
          "type": "string"
        }
      ],
      "name": "modelNameToId",
      "outputs": [
        {
          "internalType": "uint256",
          "name": "",
          "type": "uint256"
        }
      ],
      "stateMutability": "view",
      "type": "function"
    },
    {
      "inputs": [
        {
          "internalType": "uint256",
          "name": "",
          "type": "uint256"
        },
        {
          "internalType": "uint256",
          "name": "",
          "type": "uint256"
        }
      ],
      "name": "modelToTokens",
      "outputs": [
        {
          "internalType": "uint256",
          "name": "",
          "type": "uint256"
        }
      ],
      "stateMutability": "view",
      "type": "function"
    },
    {
      "inputs": [
        {
          "internalType": "uint256",
          "name": "",
          "type": "uint256"
        }
      ],
      "name": "models",
      "outputs": [
        {
          "internalType": "string",
          "name": "sneakerModel",
          "type": "string"
        },
        {
          "internalType": "uint256",
          "name": "totalSupply",
          "type": "uint256"
        },
        {
          "internalType": "uint256",
          "name": "currentSupply",
          "type": "uint256"
        },
        {
          "internalType": "bool",
          "name": "exists",
          "type": "bool"
        }
      ],
      "stateMutability": "view",
      "type": "function"
    },
    {
      "inputs": [],
      "name": "nikeTreasury",
      "outputs": [
        {
          "internalType": "address",
          "name": "",
          "type": "address"
        }
      ],
      "stateMutability": "view",
      "type": "function"
    },
    {
      "inputs": [],
      "name": "owner",
      "outputs": [
        {
          "internalType": "address",
          "name": "",
          "type": "address"
        }
      ],
      "stateMutability": "view",
      "type": "function"
    },
    {
      "inputs": [
        {
          "internalType": "uint256",
          "name": "",
          "type": "uint256"
        }
      ],
      "name": "purchaseCount",
      "outputs": [
        {
          "internalType": "uint256",
          "name": "",
          "type": "uint256"
        }
      ],
      "stateMutability": "view",
      "type": "function"
    },
    {
      "inputs": [
        {
          "internalType": "uint256",
          "name": "",
          "type": "uint256"
        },
        {
          "internalType": "uint256",
          "name": "",
          "type": "uint256"
        }
      ],
      "name": "purchaseHistory",
      "outputs": [
        {
          "internalType": "uint256",
          "name": "tokenId",
          "type": "uint256"
        },
        {
          "internalType": "address",
          "name": "buyer",
          "type": "address"
        },
        {
          "internalType": "address",
          "name": "seller",
          "type": "address"
        },
        {
          "internalType": "uint256",
          "name": "price",
          "type": "uint256"
        },
        {
          "internalType": "uint256",
          "name": "timestamp",
          "type": "uint256"
        }
      ],
      "stateMutability": "view",
      "type": "function"
    },
    {
      "inputs": [
        {
          "internalType": "uint256",
          "name": "_tokenId",
          "type": "uint256"
        },
        {
          "internalType": "uint256",
          "name": "_newPrice",
          "type": "uint256"
        }
      ],
      "name": "relistSneaker",
      "outputs": [],
      "stateMutability": "nonpayable",
      "type": "function"
    },
    {
      "inputs": [],
      "name": "renounceOwnership",
      "outputs": [],
      "stateMutability": "nonpayable",
      "type": "function"
    },
    {
      "inputs": [],
      "name": "sneakerCount",
      "outputs": [
        {
          "internalType": "uint256",
          "name": "",
          "type": "uint256"
        }
      ],
      "stateMutability": "view",
      "type": "function"
    },
    {
      "inputs": [
        {
          "internalType": "uint256",
          "name": "",
          "type": "uint256"
        }
      ],
      "name": "sneakers",
      "outputs": [
        {
          "internalType": "address",
          "name": "seller",
          "type": "address"
        },
        {
          "internalType": "address",
          "name": "buyer",
          "type": "address"
        },
        {
          "internalType": "uint256",
          "name": "tokenId",
          "type": "uint256"
        },
        {
          "internalType": "uint256",
          "name": "modelId",
          "type": "uint256"
        },
        {
          "internalType": "uint256",
          "name": "price",
          "type": "uint256"
        },
        {
          "internalType": "string",
          "name": "imageURL",
          "type": "string"
        },
        {
          "internalType": "bool",
          "name": "sold",
          "type": "bool"
        },
        {
          "internalType": "bool",
          "name": "active",
          "type": "bool"
        }
      ],
      "stateMutability": "view",
      "type": "function"
    },
    {
      "inputs": [
        {
          "internalType": "address",
          "name": "newOwner",
          "type": "address"
        }
      ],
      "name": "transferOwnership",
      "outputs": [],
      "stateMutability": "nonpayable",
      "type": "function"
    },
    {
      "inputs": [
        {
          "internalType": "address",
          "name": "_newTreasury",
          "type": "address"
        }
      ],
      "name": "updateTreasuryAddress",
      "outputs": [],
      "stateMutability": "nonpayable",
      "type": "function"
    }
  ],
  "bytecode": "0x608060405234801561001057600080fd5b50604051612f60380380612f6083398181016040528101906100329190610223565b33600073ffffffffffffffffffffffffffffffffffffffff168173ffffffffffffffffffffffffffffffffffffffff16036100a55760006040517f1e4fbdf700000000000000000000000000000000000000000000000000000000815260040161009c919061025f565b60405180910390fd5b6100b4816100fc60201b60201c565b5080600160006101000a81548173ffffffffffffffffffffffffffffffffffffffff021916908373ffffffffffffffffffffffffffffffffffffffff1602179055505061027a565b60008060009054906101000a900473ffffffffffffffffffffffffffffffffffffffff169050816000806101000a81548173ffffffffffffffffffffffffffffffffffffffff021916908373ffffffffffffffffffffffffffffffffffffffff1602179055508173ffffffffffffffffffffffffffffffffffffffff168173ffffffffffffffffffffffffffffffffffffffff167f8be0079c531659141344cd1fd0a4f28419497f9722a3daafe3b4186f6b6457e060405160405180910390a35050565b600080fd5b600073ffffffffffffffffffffffffffffffffffffffff82169050919050565b60006101f0826101c5565b9050919050565b610200816101e5565b811461020b57600080fd5b50565b60008151905061021d816101f7565b92915050565b600060208284031215610239576102386101c0565b5b60006102478482850161020e565b91505092915050565b610259816101e5565b82525050565b60006020820190506102746000830184610250565b92915050565b612cd7806102896000396000f3fe60806040526004361061011f5760003560e01c80638da5cb5b116100a0578063bd2e065c11610064578063bd2e065c146103df578063c6a645fe14610423578063f2fde38b1461044e578063f3f585e314610477578063f4bf28a0146104a05761011f565b80638da5cb5b146102d05780638e350f51146102fb578063905d94f51461033857806395f58ab814610361578063a13f70b4146103a25761011f565b80636a030ca9116100e75780636a030ca91461020b5780636eb0e6491461024b578063715018a6146102745780637382bc6a1461028b578063841e4561146102a75761011f565b806302f9d81614610124578063160d8f151461014f5780633319fe66146101785780634502032e146101b5578063463b08db146101e0575b600080fd5b34801561013057600080fd5b506101396104dd565b6040516101469190611a79565b60405180910390f35b34801561015b57600080fd5b5061017660048036038101906101719190611c24565b610503565b005b34801561018457600080fd5b5061019f600480360381019061019a9190611caf565b61088a565b6040516101ac9190611ceb565b60405180910390f35b3480156101c157600080fd5b506101ca6108a2565b6040516101d79190611ceb565b60405180910390f35b3480156101ec57600080fd5b506101f56108a8565b6040516102029190611ceb565b60405180910390f35b34801561021757600080fd5b50610232600480360381019061022d9190611caf565b6108ad565b6040516102429493929190611da0565b60405180910390f35b34801561025757600080fd5b50610272600480360381019061026d9190611dec565b610972565b005b34801561028057600080fd5b50610289610bc0565b005b6102a560048036038101906102a09190611caf565b610bd4565b005b3480156102b357600080fd5b506102ce60048036038101906102c99190611e58565b61115e565b005b3480156102dc57600080fd5b506102e5611219565b6040516102f29190611a79565b60405180910390f35b34801561030757600080fd5b50610322600480360381019061031d9190611dec565b611242565b60405161032f9190611ceb565b60405180910390f35b34801561034457600080fd5b5061035f600480360381019061035a9190611caf565b611273565b005b34801561036d57600080fd5b5061038860048036038101906103839190611dec565b61133c565b604051610399959493929190611e85565b60405180910390f35b3480156103ae57600080fd5b506103c960048036038101906103c49190611ed8565b6113cf565b6040516103d69190611ceb565b60405180910390f35b3480156103eb57600080fd5b5061040660048036038101906104019190611caf565b6113fd565b60405161041a989796959493929190611f21565b60405180910390f35b34801561042f57600080fd5b50610438611527565b6040516104459190611ceb565b60405180910390f35b34801561045a57600080fd5b5061047560048036038101906104709190611e58565b61152d565b005b34801561048357600080fd5b5061049e60048036038101906104999190611fa6565b6115b3565b005b3480156104ac57600080fd5b506104c760048036038101906104c29190611caf565b6117a9565b6040516104d49190612137565b60405180910390f35b600160009054906101000a900473ffffffffffffffffffffffffffffffffffffffff1681565b61050b6118e5565b600083511161054f576040517f08c379a0000000000000000000000000000000000000000000000000000000008152600401610546906121a5565b60405180910390fd5b60006005846040516105619190612201565b90815260200160405180910390205490506006600082815260200190815260200160002060030160009054906101000a900460ff166105d5576040517f08c379a00000000000000000000000000000000000000000000000000000000081526004016105cc90612264565b60405180910390fd5b60006006600083815260200190815260200160002090508060010154816002015410610636576040517f08c379a000000000000000000000000000000000000000000000000000000000815260040161062d906122f6565b60405180910390fd5b80600201600081548092919061064b90612345565b91905055506040518061010001604052803373ffffffffffffffffffffffffffffffffffffffff168152602001600073ffffffffffffffffffffffffffffffffffffffff16815260200160095481526020018381526020018581526020018481526020016000151581526020016001151581525060026000600954815260200190815260200160002060008201518160000160006101000a81548173ffffffffffffffffffffffffffffffffffffffff021916908373ffffffffffffffffffffffffffffffffffffffff16021790555060208201518160010160006101000a81548173ffffffffffffffffffffffffffffffffffffffff021916908373ffffffffffffffffffffffffffffffffffffffff16021790555060408201518160020155606082015181600301556080820151816004015560a08201518160050190816107959190612599565b5060c08201518160060160006101000a81548160ff02191690831515021790555060e08201518160060160016101000a81548160ff0219169083151502179055509050506007600083815260200190815260200160002060095490806001815401808255809150506001900390600052602060002001600090919091909150553373ffffffffffffffffffffffffffffffffffffffff16826009547f606ba8fb758fa8cf30bf47025bcbb3ea8c81ecc72ba44ddc518c92e06de995a88787426040516108639392919061266b565b60405180910390a46009600081548092919061087e90612345565b91905055505050505050565b60046020528060005260406000206000915090505481565b60095481565b600581565b60066020528060005260406000206000915090508060000180546108d0906123bc565b80601f01602080910402602001604051908101604052809291908181526020018280546108fc906123bc565b80156109495780601f1061091e57610100808354040283529160200191610949565b820191906000526020600020905b81548152906001019060200180831161092c57829003601f168201915b5050505050908060010154908060020154908060030160009054906101000a900460ff16905084565b60006002600084815260200190815260200160002090503373ffffffffffffffffffffffffffffffffffffffff168160010160009054906101000a900473ffffffffffffffffffffffffffffffffffffffff1673ffffffffffffffffffffffffffffffffffffffff1614610a1b576040517f08c379a0000000000000000000000000000000000000000000000000000000008152600401610a12906126f5565b60405180910390fd5b8060060160009054906101000a900460ff16610a6c576040517f08c379a0000000000000000000000000000000000000000000000000000000008152600401610a6390612761565b60405180910390fd5b8060060160019054906101000a900460ff16610abd576040517f08c379a0000000000000000000000000000000000000000000000000000000008152600401610ab4906127cd565b60405180910390fd5b338160000160006101000a81548173ffffffffffffffffffffffffffffffffffffffff021916908373ffffffffffffffffffffffffffffffffffffffff16021790555081816004018190555060008160010160006101000a81548173ffffffffffffffffffffffffffffffffffffffff021916908373ffffffffffffffffffffffffffffffffffffffff16021790555060008160060160006101000a81548160ff0219169083151502179055503373ffffffffffffffffffffffffffffffffffffffff16837f3f57742c40b3e806a6cecf3baeaab11630355e51ee290636e63f08ff300d9a388442604051610bb39291906127ed565b60405180910390a3505050565b610bc86118e5565b610bd2600061196c565b565b60006002600083815260200190815260200160002090508060060160019054906101000a900460ff16610c3c576040517f08c379a0000000000000000000000000000000000000000000000000000000008152600401610c33906127cd565b60405180910390fd5b8060060160009054906101000a900460ff1615610c8e576040517f08c379a0000000000000000000000000000000000000000000000000000000008152600401610c8590612862565b60405180910390fd5b80600401543414610cd4576040517f08c379a0000000000000000000000000000000000000000000000000000000008152600401610ccb906128ce565b60405180910390fd5b8060000160009054906101000a900473ffffffffffffffffffffffffffffffffffffffff1673ffffffffffffffffffffffffffffffffffffffff163373ffffffffffffffffffffffffffffffffffffffff1603610d66576040517f08c379a0000000000000000000000000000000000000000000000000000000008152600401610d5d90612960565b60405180910390fd5b6000610d70611219565b73ffffffffffffffffffffffffffffffffffffffff168260000160009054906101000a900473ffffffffffffffffffffffffffffffffffffffff1673ffffffffffffffffffffffffffffffffffffffff1614610de657606460058360040154610dd99190612980565b610de391906129f1565b90505b6000818360040154610df89190612a22565b905060018360060160006101000a81548160ff021916908315150217905550338360010160006101000a81548173ffffffffffffffffffffffffffffffffffffffff021916908373ffffffffffffffffffffffffffffffffffffffff1602179055506000821115610ecd57600160009054906101000a900473ffffffffffffffffffffffffffffffffffffffff1673ffffffffffffffffffffffffffffffffffffffff166108fc839081150290604051600060405180830381858888f19350505050158015610ecb573d6000803e3d6000fd5b505b8260000160009054906101000a900473ffffffffffffffffffffffffffffffffffffffff1673ffffffffffffffffffffffffffffffffffffffff166108fc829081150290604051600060405180830381858888f19350505050158015610f37573d6000803e3d6000fd5b50600360008581526020019081526020016000206040518060a001604052808681526020013373ffffffffffffffffffffffffffffffffffffffff1681526020018560000160009054906101000a900473ffffffffffffffffffffffffffffffffffffffff1673ffffffffffffffffffffffffffffffffffffffff168152602001856004015481526020014281525090806001815401808255809150506001900390600052602060002090600502016000909190919091506000820151816000015560208201518160010160006101000a81548173ffffffffffffffffffffffffffffffffffffffff021916908373ffffffffffffffffffffffffffffffffffffffff16021790555060408201518160020160006101000a81548173ffffffffffffffffffffffffffffffffffffffff021916908373ffffffffffffffffffffffffffffffffffffffff160217905550606082015181600301556080820151816004015550506004600085815260200190815260200160002060008154809291906110c190612345565b91905055508260000160009054906101000a900473ffffffffffffffffffffffffffffffffffffffff1673ffffffffffffffffffffffffffffffffffffffff163373ffffffffffffffffffffffffffffffffffffffff16857fb510c43746188c95edb193ade4c138cef0118d0cb4f9e59ee2f84495f49892c18660040154864260405161115093929190612a56565b60405180910390a450505050565b6111666118e5565b600073ffffffffffffffffffffffffffffffffffffffff168173ffffffffffffffffffffffffffffffffffffffff16036111d5576040517f08c379a00000000000000000000000000000000000000000000000000000000081526004016111cc90612ad9565b60405180910390fd5b80600160006101000a81548173ffffffffffffffffffffffffffffffffffffffff021916908373ffffffffffffffffffffffffffffffffffffffff16021790555050565b60008060009054906101000a900473ffffffffffffffffffffffffffffffffffffffff16905090565b6007602052816000526040600020818154811061125e57600080fd5b90600052602060002001600091509150505481565b61127b6118e5565b60006002600083815260200190815260200160002090508060060160019054906101000a900460ff166112e3576040517f08c379a00000000000000000000000000000000000000000000000000000000081526004016112da90612b45565b60405180910390fd5b60008160060160016101000a81548160ff021916908315150217905550817fb1b6f7e8c1e5e35b3c8ce39dddaa46756fc77d437ca7c4dcf4686b3484641e9a426040516113309190611ceb565b60405180910390a25050565b6003602052816000526040600020818154811061135857600080fd5b9060005260206000209060050201600091509150508060000154908060010160009054906101000a900473ffffffffffffffffffffffffffffffffffffffff16908060020160009054906101000a900473ffffffffffffffffffffffffffffffffffffffff16908060030154908060040154905085565b6005818051602081018201805184825260208301602085012081835280955050505050506000915090505481565b60026020528060005260406000206000915090508060000160009054906101000a900473ffffffffffffffffffffffffffffffffffffffff16908060010160009054906101000a900473ffffffffffffffffffffffffffffffffffffffff169080600201549080600301549080600401549080600501805461147e906123bc565b80601f01602080910402602001604051908101604052809291908181526020018280546114aa906123bc565b80156114f75780601f106114cc576101008083540402835291602001916114f7565b820191906000526020600020905b8154815290600101906020018083116114da57829003601f168201915b5050505050908060060160009054906101000a900460ff16908060060160019054906101000a900460ff16905088565b60085481565b6115356118e5565b600073ffffffffffffffffffffffffffffffffffffffff168173ffffffffffffffffffffffffffffffffffffffff16036115a75760006040517f1e4fbdf700000000000000000000000000000000000000000000000000000000815260040161159e9190611a79565b60405180910390fd5b6115b08161196c565b50565b6115bb6118e5565b60008251116115ff576040517f08c379a00000000000000000000000000000000000000000000000000000000081526004016115f6906121a5565b60405180910390fd5b60008111611642576040517f08c379a000000000000000000000000000000000000000000000000000000000815260040161163990612bd7565b60405180910390fd5b60006005836040516116549190612201565b908152602001604051809103902054146116a3576040517f08c379a000000000000000000000000000000000000000000000000000000000815260040161169a90612c43565b60405180910390fd5b6040518060800160405280838152602001828152602001600081526020016001151581525060066000600854815260200190815260200160002060008201518160000190816116f29190612599565b50602082015181600101556040820151816002015560608201518160030160006101000a81548160ff02191690831515021790555090505060085460058360405161173d9190612201565b9081526020016040518091039020819055506008547fc1496f6921192ba6e7dd66913437cc08e4822344b89c7d0a8441d2cf9b0005f783834260405161178593929190612c63565b60405180910390a2600860008154809291906117a090612345565b91905055505050565b606060036000838152602001908152602001600020805480602002602001604051908101604052809291908181526020016000905b828210156118da57838290600052602060002090600502016040518060a0016040529081600082015481526020016001820160009054906101000a900473ffffffffffffffffffffffffffffffffffffffff1673ffffffffffffffffffffffffffffffffffffffff1673ffffffffffffffffffffffffffffffffffffffff1681526020016002820160009054906101000a900473ffffffffffffffffffffffffffffffffffffffff1673ffffffffffffffffffffffffffffffffffffffff1673ffffffffffffffffffffffffffffffffffffffff16815260200160038201548152602001600482015481525050815260200190600101906117de565b505050509050919050565b6118ed611a30565b73ffffffffffffffffffffffffffffffffffffffff1661190b611219565b73ffffffffffffffffffffffffffffffffffffffff161461196a5761192e611a30565b6040517f118cdaa70000000000000000000000000000000000000000000000000000000081526004016119619190611a79565b60405180910390fd5b565b60008060009054906101000a900473ffffffffffffffffffffffffffffffffffffffff169050816000806101000a81548173ffffffffffffffffffffffffffffffffffffffff021916908373ffffffffffffffffffffffffffffffffffffffff1602179055508173ffffffffffffffffffffffffffffffffffffffff168173ffffffffffffffffffffffffffffffffffffffff167f8be0079c531659141344cd1fd0a4f28419497f9722a3daafe3b4186f6b6457e060405160405180910390a35050565b600033905090565b600073ffffffffffffffffffffffffffffffffffffffff82169050919050565b6000611a6382611a38565b9050919050565b611a7381611a58565b82525050565b6000602082019050611a8e6000830184611a6a565b92915050565b6000604051905090565b600080fd5b600080fd5b600080fd5b600080fd5b6000601f19601f8301169050919050565b7f4e487b7100000000000000000000000000000000000000000000000000000000600052604160045260246000fd5b611afb82611ab2565b810181811067ffffffffffffffff82111715611b1a57611b19611ac3565b5b80604052505050565b6000611b2d611a94565b9050611b398282611af2565b919050565b600067ffffffffffffffff821115611b5957611b58611ac3565b5b611b6282611ab2565b9050602081019050919050565b82818337600083830152505050565b6000611b91611b8c84611b3e565b611b23565b905082815260208101848484011115611bad57611bac611aad565b5b611bb8848285611b6f565b509392505050565b600082601f830112611bd557611bd4611aa8565b5b8135611be5848260208601611b7e565b91505092915050565b6000819050919050565b611c0181611bee565b8114611c0c57600080fd5b50565b600081359050611c1e81611bf8565b92915050565b600080600060608486031215611c3d57611c3c611a9e565b5b600084013567ffffffffffffffff811115611c5b57611c5a611aa3565b5b611c6786828701611bc0565b9350506020611c7886828701611c0f565b925050604084013567ffffffffffffffff811115611c9957611c98611aa3565b5b611ca586828701611bc0565b9150509250925092565b600060208284031215611cc557611cc4611a9e565b5b6000611cd384828501611c0f565b91505092915050565b611ce581611bee565b82525050565b6000602082019050611d006000830184611cdc565b92915050565b600081519050919050565b600082825260208201905092915050565b60005b83811015611d40578082015181840152602081019050611d25565b60008484015250505050565b6000611d5782611d06565b611d618185611d11565b9350611d71818560208601611d22565b611d7a81611ab2565b840191505092915050565b60008115159050919050565b611d9a81611d85565b82525050565b60006080820190508181036000830152611dba8187611d4c565b9050611dc96020830186611cdc565b611dd66040830185611cdc565b611de36060830184611d91565b95945050505050565b60008060408385031215611e0357611e02611a9e565b5b6000611e1185828601611c0f565b9250506020611e2285828601611c0f565b9150509250929050565b611e3581611a58565b8114611e4057600080fd5b50565b600081359050611e5281611e2c565b92915050565b600060208284031215611e6e57611e6d611a9e565b5b6000611e7c84828501611e43565b91505092915050565b600060a082019050611e9a6000830188611cdc565b611ea76020830187611a6a565b611eb46040830186611a6a565b611ec16060830185611cdc565b611ece6080830184611cdc565b9695505050505050565b600060208284031215611eee57611eed611a9e565b5b600082013567ffffffffffffffff811115611f0c57611f0b611aa3565b5b611f1884828501611bc0565b91505092915050565b600061010082019050611f37600083018b611a6a565b611f44602083018a611a6a565b611f516040830189611cdc565b611f5e6060830188611cdc565b611f6b6080830187611cdc565b81810360a0830152611f7d8186611d4c565b9050611f8c60c0830185611d91565b611f9960e0830184611d91565b9998505050505050505050565b60008060408385031215611fbd57611fbc611a9e565b5b600083013567ffffffffffffffff811115611fdb57611fda611aa3565b5b611fe785828601611bc0565b9250506020611ff885828601611c0f565b9150509250929050565b600081519050919050565b600082825260208201905092915050565b6000819050602082019050919050565b61203781611bee565b82525050565b61204681611a58565b82525050565b60a082016000820151612062600085018261202e565b506020820151612075602085018261203d565b506040820151612088604085018261203d565b50606082015161209b606085018261202e565b5060808201516120ae608085018261202e565b50505050565b60006120c0838361204c565b60a08301905092915050565b6000602082019050919050565b60006120e482612002565b6120ee818561200d565b93506120f98361201e565b8060005b8381101561212a57815161211188826120b4565b975061211c836120cc565b9250506001810190506120fd565b5085935050505092915050565b6000602082019050818103600083015261215181846120d9565b905092915050565b7f536e65616b6572206d6f64656c2063616e6e6f7420626520656d707479000000600082015250565b600061218f601d83611d11565b915061219a82612159565b602082019050919050565b600060208201905081810360008301526121be81612182565b9050919050565b600081905092915050565b60006121db82611d06565b6121e581856121c5565b93506121f5818560208601611d22565b80840191505092915050565b600061220d82846121d0565b915081905092915050565b7f4d6f64656c20646f6573206e6f74206578697374000000000000000000000000600082015250565b600061224e601483611d11565b915061225982612218565b602082019050919050565b6000602082019050818103600083015261227d81612241565b9050919050565b7f4578636565647320746f74616c20737570706c7920666f722074686973206d6f60008201527f64656c0000000000000000000000000000000000000000000000000000000000602082015250565b60006122e0602383611d11565b91506122eb82612284565b604082019050919050565b6000602082019050818103600083015261230f816122d3565b9050919050565b7f4e487b7100000000000000000000000000000000000000000000000000000000600052601160045260246000fd5b600061235082611bee565b91507fffffffffffffffffffffffffffffffffffffffffffffffffffffffffffffffff820361238257612381612316565b5b600182019050919050565b7f4e487b7100000000000000000000000000000000000000000000000000000000600052602260045260246000fd5b600060028204905060018216806123d457607f821691505b6020821081036123e7576123e661238d565b5b50919050565b60008190508160005260206000209050919050565b60006020601f8301049050919050565b600082821b905092915050565b60006008830261244f7fffffffffffffffffffffffffffffffffffffffffffffffffffffffffffffffff82612412565b6124598683612412565b95508019841693508086168417925050509392505050565b6000819050919050565b600061249661249161248c84611bee565b612471565b611bee565b9050919050565b6000819050919050565b6124b08361247b565b6124c46124bc8261249d565b84845461241f565b825550505050565b600090565b6124d96124cc565b6124e48184846124a7565b505050565b5b81811015612508576124fd6000826124d1565b6001810190506124ea565b5050565b601f82111561254d5761251e816123ed565b61252784612402565b81016020851015612536578190505b61254a61254285612402565b8301826124e9565b50505b505050565b600082821c905092915050565b600061257060001984600802612552565b1980831691505092915050565b6000612589838361255f565b9150826002028217905092915050565b6125a282611d06565b67ffffffffffffffff8111156125bb576125ba611ac3565b5b6125c582546123bc565b6125d082828561250c565b600060209050601f83116001811461260357600084156125f1578287015190505b6125fb858261257d565b865550612663565b601f198416612611866123ed565b60005b8281101561263957848901518255600182019150602085019450602081019050612614565b868310156126565784890151612652601f89168261255f565b8355505b6001600288020188555050505b505050505050565b60006060820190506126806000830186611cdc565b81810360208301526126928185611d4c565b90506126a16040830184611cdc565b949350505050565b7f4f6e6c79207468652062757965722063616e2072656c69737400000000000000600082015250565b60006126df601983611d11565b91506126ea826126a9565b602082019050919050565b6000602082019050818103600083015261270e816126d2565b9050919050565b7f536e65616b6572206d75737420626520736f6c6420746f2072656c6973740000600082015250565b600061274b601e83611d11565b915061275682612715565b602082019050919050565b6000602082019050818103600083015261277a8161273e565b9050919050565b7f536e65616b6572206c697374696e67206973206e6f7420616374697665000000600082015250565b60006127b7601d83611d11565b91506127c282612781565b602082019050919050565b600060208201905081810360008301526127e6816127aa565b9050919050565b60006040820190506128026000830185611cdc565b61280f6020830184611cdc565b9392505050565b7f536e65616b657220616c726561647920736f6c64000000000000000000000000600082015250565b600061284c601483611d11565b915061285782612816565b602082019050919050565b6000602082019050818103600083015261287b8161283f565b9050919050565b7f496e636f72726563742070726963652073656e74000000000000000000000000600082015250565b60006128b8601483611d11565b91506128c382612882565b602082019050919050565b600060208201905081810360008301526128e7816128ab565b9050919050565b7f53656c6c65722063616e6e6f7420627579207468656972206f776e20736e656160008201527f6b65720000000000000000000000000000000000000000000000000000000000602082015250565b600061294a602383611d11565b9150612955826128ee565b604082019050919050565b600060208201905081810360008301526129798161293d565b9050919050565b600061298b82611bee565b915061299683611bee565b92508282026129a481611bee565b915082820484148315176129bb576129ba612316565b5b5092915050565b7f4e487b7100000000000000000000000000000000000000000000000000000000600052601260045260246000fd5b60006129fc82611bee565b9150612a0783611bee565b925082612a1757612a166129c2565b5b828204905092915050565b6000612a2d82611bee565b9150612a3883611bee565b9250828203905081811115612a5057612a4f612316565b5b92915050565b6000606082019050612a6b6000830186611cdc565b612a786020830185611cdc565b612a856040830184611cdc565b949350505050565b7f496e76616c696420747265617375727920616464726573730000000000000000600082015250565b6000612ac3601883611d11565b9150612ace82612a8d565b602082019050919050565b60006020820190508181036000830152612af281612ab6565b9050919050565b7f536e65616b657220697320616c726561647920696e6163746976650000000000600082015250565b6000612b2f601b83611d11565b9150612b3a82612af9565b602082019050919050565b60006020820190508181036000830152612b5e81612b22565b9050919050565b7f546f74616c20737570706c79206d75737420626520677265617465722074686160008201527f6e20300000000000000000000000000000000000000000000000000000000000602082015250565b6000612bc1602383611d11565b9150612bcc82612b65565b604082019050919050565b60006020820190508181036000830152612bf081612bb4565b9050919050565b7f4d6f64656c20616c726561647920657869737473000000000000000000000000600082015250565b6000612c2d601483611d11565b9150612c3882612bf7565b602082019050919050565b60006020820190508181036000830152612c5c81612c20565b9050919050565b60006060820190508181036000830152612c7d8186611d4c565b9050612c8c6020830185611cdc565b612c996040830184611cdc565b94935050505056fea2646970667358221220ffb51ed423ce213afd57945d07bb586ff792fa9bd418d3ea08209755e8061e9864736f6c634300081c0033",
  "linkReferences": {},
  "deployedLinkReferences": {}
}